{
  "contractName": "DominionDAO",
  "abi": [
    {
      "anonymous": false,
      "inputs": [
        {
          "indexed": true,
          "internalType": "address",
          "name": "initiator",
          "type": "address"
        },
        {
          "indexed": false,
          "internalType": "bytes32",
          "name": "role",
          "type": "bytes32"
        },
        {
          "indexed": false,
          "internalType": "string",
          "name": "message",
          "type": "string"
        },
        {
          "indexed": true,
          "internalType": "address",
          "name": "beneficiary",
          "type": "address"
        },
        {
          "indexed": false,
          "internalType": "uint256",
          "name": "amount",
          "type": "uint256"
        }
      ],
      "name": "Action",
      "type": "event"
    },
    {
      "anonymous": false,
      "inputs": [
        {
          "indexed": true,
          "internalType": "bytes32",
          "name": "role",
          "type": "bytes32"
        },
        {
          "indexed": true,
          "internalType": "bytes32",
          "name": "previousAdminRole",
          "type": "bytes32"
        },
        {
          "indexed": true,
          "internalType": "bytes32",
          "name": "newAdminRole",
          "type": "bytes32"
        }
      ],
      "name": "RoleAdminChanged",
      "type": "event"
    },
    {
      "anonymous": false,
      "inputs": [
        {
          "indexed": true,
          "internalType": "bytes32",
          "name": "role",
          "type": "bytes32"
        },
        {
          "indexed": true,
          "internalType": "address",
          "name": "account",
          "type": "address"
        },
        {
          "indexed": true,
          "internalType": "address",
          "name": "sender",
          "type": "address"
        }
      ],
      "name": "RoleGranted",
      "type": "event"
    },
    {
      "anonymous": false,
      "inputs": [
        {
          "indexed": true,
          "internalType": "bytes32",
          "name": "role",
          "type": "bytes32"
        },
        {
          "indexed": true,
          "internalType": "address",
          "name": "account",
          "type": "address"
        },
        {
          "indexed": true,
          "internalType": "address",
          "name": "sender",
          "type": "address"
        }
      ],
      "name": "RoleRevoked",
      "type": "event"
    },
    {
      "inputs": [],
      "name": "DEFAULT_ADMIN_ROLE",
      "outputs": [
        {
          "internalType": "bytes32",
          "name": "",
          "type": "bytes32"
        }
      ],
      "stateMutability": "view",
      "type": "function",
      "constant": true
    },
    {
      "inputs": [],
      "name": "daoBalance",
      "outputs": [
        {
          "internalType": "uint256",
          "name": "",
          "type": "uint256"
        }
      ],
      "stateMutability": "view",
      "type": "function",
      "constant": true
    },
    {
      "inputs": [
        {
          "internalType": "bytes32",
          "name": "role",
          "type": "bytes32"
        }
      ],
      "name": "getRoleAdmin",
      "outputs": [
        {
          "internalType": "bytes32",
          "name": "",
          "type": "bytes32"
        }
      ],
      "stateMutability": "view",
      "type": "function",
      "constant": true
    },
    {
      "inputs": [
        {
          "internalType": "bytes32",
          "name": "role",
          "type": "bytes32"
        },
        {
          "internalType": "address",
          "name": "account",
          "type": "address"
        }
      ],
      "name": "grantRole",
      "outputs": [],
      "stateMutability": "nonpayable",
      "type": "function"
    },
    {
      "inputs": [
        {
          "internalType": "bytes32",
          "name": "role",
          "type": "bytes32"
        },
        {
          "internalType": "address",
          "name": "account",
          "type": "address"
        }
      ],
      "name": "hasRole",
      "outputs": [
        {
          "internalType": "bool",
          "name": "",
          "type": "bool"
        }
      ],
      "stateMutability": "view",
      "type": "function",
      "constant": true
    },
    {
      "inputs": [
        {
          "internalType": "bytes32",
          "name": "role",
          "type": "bytes32"
        },
        {
          "internalType": "address",
          "name": "account",
          "type": "address"
        }
      ],
      "name": "renounceRole",
      "outputs": [],
      "stateMutability": "nonpayable",
      "type": "function"
    },
    {
      "inputs": [
        {
          "internalType": "bytes32",
          "name": "role",
          "type": "bytes32"
        },
        {
          "internalType": "address",
          "name": "account",
          "type": "address"
        }
      ],
      "name": "revokeRole",
      "outputs": [],
      "stateMutability": "nonpayable",
      "type": "function"
    },
    {
      "inputs": [
        {
          "internalType": "bytes4",
          "name": "interfaceId",
          "type": "bytes4"
        }
      ],
      "name": "supportsInterface",
      "outputs": [
        {
          "internalType": "bool",
          "name": "",
          "type": "bool"
        }
      ],
      "stateMutability": "view",
      "type": "function",
      "constant": true
    },
    {
      "inputs": [
        {
          "internalType": "string",
          "name": "title",
          "type": "string"
        },
        {
          "internalType": "string",
          "name": "description",
          "type": "string"
        },
        {
          "internalType": "address payable",
          "name": "beneficiary",
          "type": "address"
        },
        {
          "internalType": "uint256",
          "name": "amount",
          "type": "uint256"
        }
      ],
      "name": "createProposal",
      "outputs": [
        {
          "components": [
            {
              "internalType": "uint256",
              "name": "id",
              "type": "uint256"
            },
            {
              "internalType": "uint256",
              "name": "amount",
              "type": "uint256"
            },
            {
              "internalType": "uint256",
              "name": "duration",
              "type": "uint256"
            },
            {
              "internalType": "uint256",
              "name": "upvotes",
              "type": "uint256"
            },
            {
              "internalType": "uint256",
              "name": "downvotes",
              "type": "uint256"
            },
            {
              "internalType": "string",
              "name": "title",
              "type": "string"
            },
            {
              "internalType": "string",
              "name": "description",
              "type": "string"
            },
            {
              "internalType": "bool",
              "name": "passed",
              "type": "bool"
            },
            {
              "internalType": "bool",
              "name": "paid",
              "type": "bool"
            },
            {
              "internalType": "address payable",
              "name": "beneficiary",
              "type": "address"
            },
            {
              "internalType": "address",
              "name": "proposer",
              "type": "address"
            },
            {
              "internalType": "address",
              "name": "executor",
              "type": "address"
            }
          ],
          "internalType": "struct DominionDAO.ProposalStruct",
          "name": "",
          "type": "tuple"
        }
      ],
      "stateMutability": "payable",
      "type": "function",
      "payable": true
    },
    {
      "inputs": [
        {
          "internalType": "uint256",
          "name": "proposalId",
          "type": "uint256"
        },
        {
          "internalType": "bool",
          "name": "choosen",
          "type": "bool"
        }
      ],
      "name": "performVote",
      "outputs": [
        {
          "components": [
            {
              "internalType": "address",
              "name": "voter",
              "type": "address"
            },
            {
              "internalType": "uint256",
              "name": "timestamp",
              "type": "uint256"
            },
            {
              "internalType": "bool",
              "name": "choosen",
              "type": "bool"
            }
          ],
          "internalType": "struct DominionDAO.VotedStruct",
          "name": "",
          "type": "tuple"
        }
      ],
      "stateMutability": "nonpayable",
      "type": "function"
    },
    {
      "inputs": [
        {
          "internalType": "uint256",
          "name": "proposalId",
          "type": "uint256"
        }
      ],
      "name": "payBeneficiary",
      "outputs": [
        {
          "internalType": "uint256",
          "name": "",
          "type": "uint256"
        }
      ],
      "stateMutability": "nonpayable",
      "type": "function"
    },
    {
      "inputs": [],
      "name": "contribute",
      "outputs": [
        {
          "internalType": "uint256",
          "name": "",
          "type": "uint256"
        }
      ],
      "stateMutability": "payable",
      "type": "function",
      "payable": true
    },
    {
      "inputs": [],
      "name": "getProposals",
      "outputs": [
        {
          "components": [
            {
              "internalType": "uint256",
              "name": "id",
              "type": "uint256"
            },
            {
              "internalType": "uint256",
              "name": "amount",
              "type": "uint256"
            },
            {
              "internalType": "uint256",
              "name": "duration",
              "type": "uint256"
            },
            {
              "internalType": "uint256",
              "name": "upvotes",
              "type": "uint256"
            },
            {
              "internalType": "uint256",
              "name": "downvotes",
              "type": "uint256"
            },
            {
              "internalType": "string",
              "name": "title",
              "type": "string"
            },
            {
              "internalType": "string",
              "name": "description",
              "type": "string"
            },
            {
              "internalType": "bool",
              "name": "passed",
              "type": "bool"
            },
            {
              "internalType": "bool",
              "name": "paid",
              "type": "bool"
            },
            {
              "internalType": "address payable",
              "name": "beneficiary",
              "type": "address"
            },
            {
              "internalType": "address",
              "name": "proposer",
              "type": "address"
            },
            {
              "internalType": "address",
              "name": "executor",
              "type": "address"
            }
          ],
          "internalType": "struct DominionDAO.ProposalStruct[]",
          "name": "props",
          "type": "tuple[]"
        }
      ],
      "stateMutability": "view",
      "type": "function",
      "constant": true
    },
    {
      "inputs": [
        {
          "internalType": "uint256",
          "name": "proposalId",
          "type": "uint256"
        }
      ],
      "name": "getProposal",
      "outputs": [
        {
          "components": [
            {
              "internalType": "uint256",
              "name": "id",
              "type": "uint256"
            },
            {
              "internalType": "uint256",
              "name": "amount",
              "type": "uint256"
            },
            {
              "internalType": "uint256",
              "name": "duration",
              "type": "uint256"
            },
            {
              "internalType": "uint256",
              "name": "upvotes",
              "type": "uint256"
            },
            {
              "internalType": "uint256",
              "name": "downvotes",
              "type": "uint256"
            },
            {
              "internalType": "string",
              "name": "title",
              "type": "string"
            },
            {
              "internalType": "string",
              "name": "description",
              "type": "string"
            },
            {
              "internalType": "bool",
              "name": "passed",
              "type": "bool"
            },
            {
              "internalType": "bool",
              "name": "paid",
              "type": "bool"
            },
            {
              "internalType": "address payable",
              "name": "beneficiary",
              "type": "address"
            },
            {
              "internalType": "address",
              "name": "proposer",
              "type": "address"
            },
            {
              "internalType": "address",
              "name": "executor",
              "type": "address"
            }
          ],
          "internalType": "struct DominionDAO.ProposalStruct",
          "name": "",
          "type": "tuple"
        }
      ],
      "stateMutability": "view",
      "type": "function",
      "constant": true
    },
    {
      "inputs": [
        {
          "internalType": "uint256",
          "name": "proposalId",
          "type": "uint256"
        }
      ],
      "name": "getVotesOf",
      "outputs": [
        {
          "components": [
            {
              "internalType": "address",
              "name": "voter",
              "type": "address"
            },
            {
              "internalType": "uint256",
              "name": "timestamp",
              "type": "uint256"
            },
            {
              "internalType": "bool",
              "name": "choosen",
              "type": "bool"
            }
          ],
          "internalType": "struct DominionDAO.VotedStruct[]",
          "name": "",
          "type": "tuple[]"
        }
      ],
      "stateMutability": "view",
      "type": "function",
      "constant": true
    },
    {
      "inputs": [],
      "name": "getStakeholderVotes",
      "outputs": [
        {
          "internalType": "uint256[]",
          "name": "",
          "type": "uint256[]"
        }
      ],
      "stateMutability": "view",
      "type": "function",
      "constant": true
    },
    {
      "inputs": [],
      "name": "getStakeholderBalance",
      "outputs": [
        {
          "internalType": "uint256",
          "name": "",
          "type": "uint256"
        }
      ],
      "stateMutability": "view",
      "type": "function",
      "constant": true
    },
    {
      "inputs": [],
      "name": "isStakeholder",
      "outputs": [
        {
          "internalType": "bool",
          "name": "",
          "type": "bool"
        }
      ],
      "stateMutability": "view",
      "type": "function",
      "constant": true
    },
    {
      "inputs": [],
      "name": "getContributorBalance",
      "outputs": [
        {
          "internalType": "uint256",
          "name": "",
          "type": "uint256"
        }
      ],
      "stateMutability": "view",
      "type": "function",
      "constant": true
    },
    {
      "inputs": [],
      "name": "isContributor",
      "outputs": [
        {
          "internalType": "bool",
          "name": "",
          "type": "bool"
        }
      ],
      "stateMutability": "view",
      "type": "function",
      "constant": true
    },
    {
      "inputs": [],
      "name": "getBalance",
      "outputs": [
        {
          "internalType": "uint256",
          "name": "",
          "type": "uint256"
        }
      ],
      "stateMutability": "view",
      "type": "function",
      "constant": true
    }
  ],
  "bytecode": "0x6101006040527fa0bb1af1c90aa52ed052b92714ff0087008cc720049bf1af77cca2600b31e80c6080908152507ff4bb84e1768dd286358a736d195a0b228621173f655a73b89bf8b191ed0ba07d60a090815250670de0b6b3a764000060c09081525061012c63ffffffff1660e09063ffffffff1681525034801561008357600080fd5b50600160008190555060805160a05160c05160e051613fc1610119600039600061113801526000611dcb0152600081816105dd0152818161086e01528181610f0801528181610fdc015281816115500152818161168f0152818161191c01528181611d5101528181611e8f01526120810152600081816109e7015281816111c101528181611eb90152611f3e0152613fc16000f3fe60806040526004361061012a5760003560e01c80637cdc2eb7116100ab578063bd9728161161006f578063bd97281614610421578063c02146ac1461044c578063c7f758a814610477578063d547741f146104b4578063d6cc8016146104dd578063d7bb99ba146105085761012a565b80637cdc2eb71461032157806391d1485414610351578063a217fddf1461038e578063a22f1db7146103b9578063b31f111c146103e45761012a565b806336568abe116100f257806336568abe1461023a5780633cdb48c21461026357806362564c481461028e57806369a136dc146102b95780636a80d84d146102f65761012a565b806301ffc9a71461012f578063119c37c81461016c57806312065fe0146101a9578063248a9ca3146101d45780632f2ff15d14610211575b600080fd5b34801561013b57600080fd5b5061015660048036038101906101519190612a8f565b610526565b6040516101639190612ad7565b60405180910390f35b34801561017857600080fd5b50610193600480360381019061018e9190612b28565b6105a0565b6040516101a09190612b64565b60405180910390f35b3480156101b557600080fd5b506101be6108bc565b6040516101cb9190612b64565b60405180910390f35b3480156101e057600080fd5b506101fb60048036038101906101f69190612bb5565b610903565b6040516102089190612bf1565b60405180910390f35b34801561021d57600080fd5b5061023860048036038101906102339190612c6a565b610923565b005b34801561024657600080fd5b50610261600480360381019061025c9190612c6a565b610944565b005b34801561026f57600080fd5b506102786109c7565b6040516102859190612b64565b60405180910390f35b34801561029a57600080fd5b506102a3610a95565b6040516102b09190612f5e565b60405180910390f35b3480156102c557600080fd5b506102e060048036038101906102db9190612b28565b610dde565b6040516102ed9190613071565b60405180910390f35b34801561030257600080fd5b5061030b610ecb565b6040516103189190612b64565b60405180910390f35b61033b60048036038101906103369190613124565b610fb6565b60405161034891906132d6565b60405180910390f35b34801561035d57600080fd5b5061037860048036038101906103739190612c6a565b6114a1565b6040516103859190612ad7565b60405180910390f35b34801561039a57600080fd5b506103a361150c565b6040516103b09190612bf1565b60405180910390f35b3480156103c557600080fd5b506103ce611513565b6040516103db91906133a7565b60405180910390f35b3480156103f057600080fd5b5061040b600480360381019061040691906133f5565b61164c565b6040516104189190613477565b60405180910390f35b34801561042d57600080fd5b50610436611993565b6040516104439190612b64565b60405180910390f35b34801561045857600080fd5b50610461611999565b60405161046e9190612ad7565b60405180910390f35b34801561048357600080fd5b5061049e60048036038101906104999190612b28565b6119e2565b6040516104ab91906132d6565b60405180910390f35b3480156104c057600080fd5b506104db60048036038101906104d69190612c6a565b611c9e565b005b3480156104e957600080fd5b506104f2611cbf565b6040516104ff9190612ad7565b60405180910390f35b610510611d08565b60405161051d9190612b64565b60405180910390f35b60007f7965db0b000000000000000000000000000000000000000000000000000000007bffffffffffffffffffffffffffffffffffffffffffffffffffffffff1916827bffffffffffffffffffffffffffffffffffffffffffffffffffffffff191614806105995750610598826120bf565b5b9050919050565b60006040518060400160405280601f81526020017f556e617574686f72697a65643a205374616b65686f6c64657273206f6e6c79008152506106027f0000000000000000000000000000000000000000000000000000000000000000336114a1565b8190610644576040517f08c379a000000000000000000000000000000000000000000000000000000000815260040161063b91906134dc565b60405180910390fd5b5061064d612129565b6000600460008581526020019081526020016000209050806001015460035410156106ad576040517f08c379a00000000000000000000000000000000000000000000000000000000081526004016106a49061354a565b60405180910390fd5b8060070160019054906101000a900460ff16156106ff576040517f08c379a00000000000000000000000000000000000000000000000000000000081526004016106f6906135b6565b60405180910390fd5b8060040154816003015411610749576040517f08c379a000000000000000000000000000000000000000000000000000000000815260040161074090613622565b60405180910390fd5b61077b8160070160029054906101000a900473ffffffffffffffffffffffffffffffffffffffff168260010154612179565b5060018160070160016101000a81548160ff021916908315150217905550338160090160006101000a81548173ffffffffffffffffffffffffffffffffffffffff021916908373ffffffffffffffffffffffffffffffffffffffff1602179055508060010154600360008282546107f29190613671565b925050819055508060070160029054906101000a900473ffffffffffffffffffffffffffffffffffffffff1673ffffffffffffffffffffffffffffffffffffffff163373ffffffffffffffffffffffffffffffffffffffff167fa596782d699d74613fcbf59d33e720baabd313d6be9c95e2268f305430305eb77f000000000000000000000000000000000000000000000000000000000000000084600101546040516108a09291906136f1565b60405180910390a36003549250506108b6612231565b50919050565b6000600760003373ffffffffffffffffffffffffffffffffffffffff1673ffffffffffffffffffffffffffffffffffffffff16815260200190815260200160002054905090565b600060016000838152602001908152602001600020600101549050919050565b61092c82610903565b6109358161223b565b61093f838361224f565b505050565b61094c61232f565b73ffffffffffffffffffffffffffffffffffffffff168173ffffffffffffffffffffffffffffffffffffffff16146109b9576040517f08c379a00000000000000000000000000000000000000000000000000000000081526004016109b09061379f565b60405180910390fd5b6109c38282612337565b5050565b6000604051806060016040528060218152602001613f3c60219139610a0c7f0000000000000000000000000000000000000000000000000000000000000000336114a1565b8190610a4e576040517f08c379a0000000000000000000000000000000000000000000000000000000008152600401610a4591906134dc565b60405180910390fd5b50600760003373ffffffffffffffffffffffffffffffffffffffff1673ffffffffffffffffffffffffffffffffffffffff1681526020019081526020016000205491505090565b606060025467ffffffffffffffff811115610ab357610ab26137bf565b5b604051908082528060200260200182016040528015610aec57816020015b610ad96128aa565b815260200190600190039081610ad15790505b50905060005b600254811015610dda5760046000828152602001908152602001600020604051806101800160405290816000820154815260200160018201548152602001600282015481526020016003820154815260200160048201548152602001600582018054610b5d9061381d565b80601f0160208091040260200160405190810160405280929190818152602001828054610b899061381d565b8015610bd65780601f10610bab57610100808354040283529160200191610bd6565b820191906000526020600020905b815481529060010190602001808311610bb957829003601f168201915b50505050508152602001600682018054610bef9061381d565b80601f0160208091040260200160405190810160405280929190818152602001828054610c1b9061381d565b8015610c685780601f10610c3d57610100808354040283529160200191610c68565b820191906000526020600020905b815481529060010190602001808311610c4b57829003601f168201915b505050505081526020016007820160009054906101000a900460ff161515151581526020016007820160019054906101000a900460ff161515151581526020016007820160029054906101000a900473ffffffffffffffffffffffffffffffffffffffff1673ffffffffffffffffffffffffffffffffffffffff1673ffffffffffffffffffffffffffffffffffffffff1681526020016008820160009054906101000a900473ffffffffffffffffffffffffffffffffffffffff1673ffffffffffffffffffffffffffffffffffffffff1673ffffffffffffffffffffffffffffffffffffffff1681526020016009820160009054906101000a900473ffffffffffffffffffffffffffffffffffffffff1673ffffffffffffffffffffffffffffffffffffffff1673ffffffffffffffffffffffffffffffffffffffff1681525050828281518110610dbc57610dbb61384f565b5b60200260200101819052508080610dd29061387e565b915050610af2565b5090565b606060066000838152602001908152602001600020805480602002602001604051908101604052809291908181526020016000905b82821015610ec057838290600052602060002090600302016040518060600160405290816000820160009054906101000a900473ffffffffffffffffffffffffffffffffffffffff1673ffffffffffffffffffffffffffffffffffffffff1673ffffffffffffffffffffffffffffffffffffffff168152602001600182015481526020016002820160009054906101000a900460ff16151515158152505081526020019060010190610e13565b505050509050919050565b60006040518060400160405280601f81526020017f556e617574686f72697a65643a206e6f742061207374616b65686f6c64657200815250610f2d7f0000000000000000000000000000000000000000000000000000000000000000336114a1565b8190610f6f576040517f08c379a0000000000000000000000000000000000000000000000000000000008152600401610f6691906134dc565b60405180910390fd5b50600860003373ffffffffffffffffffffffffffffffffffffffff1673ffffffffffffffffffffffffffffffffffffffff1681526020019081526020016000205491505090565b610fbe6128aa565b6040518060600160405280602f8152602001613f5d602f91396110017f0000000000000000000000000000000000000000000000000000000000000000336114a1565b8190611043576040517f08c379a000000000000000000000000000000000000000000000000000000000815260040161103a91906134dc565b60405180910390fd5b506000600260008154809291906110599061387e565b9190505590506000600460008381526020019081526020016000209050818160000181905550338160080160006101000a81548173ffffffffffffffffffffffffffffffffffffffff021916908373ffffffffffffffffffffffffffffffffffffffff16021790555089898260050191906110d5929190612951565b5087878260060191906110e9929190612951565b50858160070160026101000a81548173ffffffffffffffffffffffffffffffffffffffff021916908373ffffffffffffffffffffffffffffffffffffffff1602179055508481600101819055507f000000000000000000000000000000000000000000000000000000000000000063ffffffff164261116891906138c7565b81600201819055508573ffffffffffffffffffffffffffffffffffffffff163373ffffffffffffffffffffffffffffffffffffffff167fa596782d699d74613fcbf59d33e720baabd313d6be9c95e2268f305430305eb77f0000000000000000000000000000000000000000000000000000000000000000886040516111ef929190613969565b60405180910390a3806040518061018001604052908160008201548152602001600182015481526020016002820154815260200160038201548152602001600482015481526020016005820180546112469061381d565b80601f01602080910402602001604051908101604052809291908181526020018280546112729061381d565b80156112bf5780601f10611294576101008083540402835291602001916112bf565b820191906000526020600020905b8154815290600101906020018083116112a257829003601f168201915b505050505081526020016006820180546112d89061381d565b80601f01602080910402602001604051908101604052809291908181526020018280546113049061381d565b80156113515780601f1061132657610100808354040283529160200191611351565b820191906000526020600020905b81548152906001019060200180831161133457829003601f168201915b505050505081526020016007820160009054906101000a900460ff161515151581526020016007820160019054906101000a900460ff161515151581526020016007820160029054906101000a900473ffffffffffffffffffffffffffffffffffffffff1673ffffffffffffffffffffffffffffffffffffffff1673ffffffffffffffffffffffffffffffffffffffff1681526020016008820160009054906101000a900473ffffffffffffffffffffffffffffffffffffffff1673ffffffffffffffffffffffffffffffffffffffff1673ffffffffffffffffffffffffffffffffffffffff1681526020016009820160009054906101000a900473ffffffffffffffffffffffffffffffffffffffff1673ffffffffffffffffffffffffffffffffffffffff1673ffffffffffffffffffffffffffffffffffffffff168152505093505050509695505050505050565b60006001600084815260200190815260200160002060000160008373ffffffffffffffffffffffffffffffffffffffff1673ffffffffffffffffffffffffffffffffffffffff16815260200190815260200160002060009054906101000a900460ff16905092915050565b6000801b81565b60606040518060400160405280601f81526020017f556e617574686f72697a65643a206e6f742061207374616b65686f6c646572008152506115757f0000000000000000000000000000000000000000000000000000000000000000336114a1565b81906115b7576040517f08c379a00000000000000000000000000000000000000000000000000000000081526004016115ae91906134dc565b60405180910390fd5b50600560003373ffffffffffffffffffffffffffffffffffffffff1673ffffffffffffffffffffffffffffffffffffffff16815260200190815260200160002080548060200260200160405190810160405280929190818152602001828054801561164157602002820191906000526020600020905b81548152602001906001019080831161162d575b505050505091505090565b6116546129d7565b6040518060400160405280601f81526020017f556e617574686f72697a65643a205374616b65686f6c64657273206f6e6c79008152506116b47f0000000000000000000000000000000000000000000000000000000000000000336114a1565b81906116f6576040517f08c379a00000000000000000000000000000000000000000000000000000000081526004016116ed91906134dc565b60405180910390fd5b50600060046000868152602001908152602001600020905061171781612419565b831561173c578060030160008154809291906117329061387e565b9190505550611757565b8060040160008154809291906117519061387e565b91905055505b600560003373ffffffffffffffffffffffffffffffffffffffff1673ffffffffffffffffffffffffffffffffffffffff16815260200190815260200160002081600001549080600181540180825580915050600190039060005260206000200160009091909190915055600660008260000154815260200190815260200160002060405180606001604052803373ffffffffffffffffffffffffffffffffffffffff168152602001428152602001861515815250908060018154018082558091505060019003906000526020600020906003020160009091909190915060008201518160000160006101000a81548173ffffffffffffffffffffffffffffffffffffffff021916908373ffffffffffffffffffffffffffffffffffffffff1602179055506020820151816001015560408201518160020160006101000a81548160ff02191690831515021790555050508060070160029054906101000a900473ffffffffffffffffffffffffffffffffffffffff1673ffffffffffffffffffffffffffffffffffffffff163373ffffffffffffffffffffffffffffffffffffffff167fa596782d699d74613fcbf59d33e720baabd313d6be9c95e2268f305430305eb77f0000000000000000000000000000000000000000000000000000000000000000846001015460405161194e9291906139f1565b60405180910390a360405180606001604052803373ffffffffffffffffffffffffffffffffffffffff1681526020014281526020018515158152509250505092915050565b60035481565b600080600860003373ffffffffffffffffffffffffffffffffffffffff1673ffffffffffffffffffffffffffffffffffffffff1681526020019081526020016000205411905090565b6119ea6128aa565b60046000838152602001908152602001600020604051806101800160405290816000820154815260200160018201548152602001600282015481526020016003820154815260200160048201548152602001600582018054611a4b9061381d565b80601f0160208091040260200160405190810160405280929190818152602001828054611a779061381d565b8015611ac45780601f10611a9957610100808354040283529160200191611ac4565b820191906000526020600020905b815481529060010190602001808311611aa757829003601f168201915b50505050508152602001600682018054611add9061381d565b80601f0160208091040260200160405190810160405280929190818152602001828054611b099061381d565b8015611b565780601f10611b2b57610100808354040283529160200191611b56565b820191906000526020600020905b815481529060010190602001808311611b3957829003601f168201915b505050505081526020016007820160009054906101000a900460ff161515151581526020016007820160019054906101000a900460ff161515151581526020016007820160029054906101000a900473ffffffffffffffffffffffffffffffffffffffff1673ffffffffffffffffffffffffffffffffffffffff1673ffffffffffffffffffffffffffffffffffffffff1681526020016008820160009054906101000a900473ffffffffffffffffffffffffffffffffffffffff1673ffffffffffffffffffffffffffffffffffffffff1673ffffffffffffffffffffffffffffffffffffffff1681526020016009820160009054906101000a900473ffffffffffffffffffffffffffffffffffffffff1673ffffffffffffffffffffffffffffffffffffffff1673ffffffffffffffffffffffffffffffffffffffff16815250509050919050565b611ca782610903565b611cb08161223b565b611cba8383612337565b505050565b600080600760003373ffffffffffffffffffffffffffffffffffffffff1673ffffffffffffffffffffffffffffffffffffffff1681526020019081526020016000205411905090565b6000803411611d4c576040517f08c379a0000000000000000000000000000000000000000000000000000000008152600401611d4390613a9f565b60405180910390fd5b611d767f0000000000000000000000000000000000000000000000000000000000000000336114a1565b611f6a57600034600760003373ffffffffffffffffffffffffffffffffffffffff1673ffffffffffffffffffffffffffffffffffffffff16815260200190815260200160002054611dc791906138c7565b90507f00000000000000000000000000000000000000000000000000000000000000008110611ee35780600860003373ffffffffffffffffffffffffffffffffffffffff1673ffffffffffffffffffffffffffffffffffffffff1681526020019081526020016000208190555034600760003373ffffffffffffffffffffffffffffffffffffffff1673ffffffffffffffffffffffffffffffffffffffff1681526020019081526020016000206000828254611e8391906138c7565b92505081905550611eb47f0000000000000000000000000000000000000000000000000000000000000000336125ae565b611ede7f0000000000000000000000000000000000000000000000000000000000000000336125ae565b611f64565b34600760003373ffffffffffffffffffffffffffffffffffffffff1673ffffffffffffffffffffffffffffffffffffffff1681526020019081526020016000206000828254611f3291906138c7565b92505081905550611f637f0000000000000000000000000000000000000000000000000000000000000000336125ae565b5b50612017565b34600760003373ffffffffffffffffffffffffffffffffffffffff1673ffffffffffffffffffffffffffffffffffffffff1681526020019081526020016000206000828254611fb991906138c7565b9250508190555034600860003373ffffffffffffffffffffffffffffffffffffffff1673ffffffffffffffffffffffffffffffffffffffff168152602001908152602001600020600082825461200f91906138c7565b925050819055505b346003600082825461202991906138c7565b925050819055503073ffffffffffffffffffffffffffffffffffffffff163373ffffffffffffffffffffffffffffffffffffffff167fa596782d699d74613fcbf59d33e720baabd313d6be9c95e2268f305430305eb77f0000000000000000000000000000000000000000000000000000000000000000346040516120af929190613b0b565b60405180910390a3600354905090565b60007f01ffc9a7000000000000000000000000000000000000000000000000000000007bffffffffffffffffffffffffffffffffffffffffffffffffffffffff1916827bffffffffffffffffffffffffffffffffffffffffffffffffffffffff1916149050919050565b6002600054141561216f576040517f08c379a000000000000000000000000000000000000000000000000000000000815260040161216690613b93565b60405180910390fd5b6002600081905550565b6000808373ffffffffffffffffffffffffffffffffffffffff16836040516121a090613be4565b60006040518083038185875af1925050503d80600081146121dd576040519150601f19603f3d011682016040523d82523d6000602084013e6121e2565b606091505b5050905080612226576040517f08c379a000000000000000000000000000000000000000000000000000000000815260040161221d90613c45565b60405180910390fd5b600191505092915050565b6001600081905550565b61224c8161224761232f565b6125bc565b50565b61225982826114a1565b61232b57600180600084815260200190815260200160002060000160008373ffffffffffffffffffffffffffffffffffffffff1673ffffffffffffffffffffffffffffffffffffffff16815260200190815260200160002060006101000a81548160ff0219169083151502179055506122d061232f565b73ffffffffffffffffffffffffffffffffffffffff168173ffffffffffffffffffffffffffffffffffffffff16837f2f8788117e7eff1d82e926ec794901d17c78024a50270940304540a733656f0d60405160405180910390a45b5050565b600033905090565b61234182826114a1565b156124155760006001600084815260200190815260200160002060000160008373ffffffffffffffffffffffffffffffffffffffff1673ffffffffffffffffffffffffffffffffffffffff16815260200190815260200160002060006101000a81548160ff0219169083151502179055506123ba61232f565b73ffffffffffffffffffffffffffffffffffffffff168173ffffffffffffffffffffffffffffffffffffffff16837ff6391f5c32d9c69d2a47ea670b442974b53935d1edc7fd64eb21e047a839171b60405160405180910390a45b5050565b8060070160009054906101000a900460ff168061243a575042816002015411155b156124975760018160070160006101000a81548160ff0219169083151502179055506040517f08c379a000000000000000000000000000000000000000000000000000000000815260040161248e90613cb1565b60405180910390fd5b6000600560003373ffffffffffffffffffffffffffffffffffffffff1673ffffffffffffffffffffffffffffffffffffffff16815260200190815260200160002080548060200260200160405190810160405280929190818152602001828054801561252257602002820191906000526020600020905b81548152602001906001019080831161250e575b5050505050905060005b81518110156125a9578181815181106125485761254761384f565b5b602002602001015183600001541415612596576040517f08c379a000000000000000000000000000000000000000000000000000000000815260040161258d90613d1d565b60405180910390fd5b80806125a19061387e565b91505061252c565b505050565b6125b8828261224f565b5050565b6125c682826114a1565b61263d576125d381612641565b6125e18360001c602061266e565b6040516020016125f2929190613e11565b6040516020818303038152906040526040517f08c379a000000000000000000000000000000000000000000000000000000000815260040161263491906134dc565b60405180910390fd5b5050565b60606126678273ffffffffffffffffffffffffffffffffffffffff16601460ff1661266e565b9050919050565b6060600060028360026126819190613e4b565b61268b91906138c7565b67ffffffffffffffff8111156126a4576126a36137bf565b5b6040519080825280601f01601f1916602001820160405280156126d65781602001600182028036833780820191505090505b5090507f30000000000000000000000000000000000000000000000000000000000000008160008151811061270e5761270d61384f565b5b60200101907effffffffffffffffffffffffffffffffffffffffffffffffffffffffffffff1916908160001a9053507f7800000000000000000000000000000000000000000000000000000000000000816001815181106127725761277161384f565b5b60200101907effffffffffffffffffffffffffffffffffffffffffffffffffffffffffffff1916908160001a905350600060018460026127b29190613e4b565b6127bc91906138c7565b90505b600181111561285c577f3031323334353637383961626364656600000000000000000000000000000000600f8616601081106127fe576127fd61384f565b5b1a60f81b8282815181106128155761281461384f565b5b60200101907effffffffffffffffffffffffffffffffffffffffffffffffffffffffffffff1916908160001a905350600485901c94508061285590613ea5565b90506127bf565b50600084146128a0576040517f08c379a000000000000000000000000000000000000000000000000000000000815260040161289790613f1b565b60405180910390fd5b8091505092915050565b60405180610180016040528060008152602001600081526020016000815260200160008152602001600081526020016060815260200160608152602001600015158152602001600015158152602001600073ffffffffffffffffffffffffffffffffffffffff168152602001600073ffffffffffffffffffffffffffffffffffffffff168152602001600073ffffffffffffffffffffffffffffffffffffffff1681525090565b82805461295d9061381d565b90600052602060002090601f01602090048101928261297f57600085556129c6565b82601f1061299857803560ff19168380011785556129c6565b828001600101855582156129c6579182015b828111156129c55782358255916020019190600101906129aa565b5b5090506129d39190612a10565b5090565b6040518060600160405280600073ffffffffffffffffffffffffffffffffffffffff168152602001600081526020016000151581525090565b5b80821115612a29576000816000905550600101612a11565b5090565b600080fd5b600080fd5b60007fffffffff0000000000000000000000000000000000000000000000000000000082169050919050565b612a6c81612a37565b8114612a7757600080fd5b50565b600081359050612a8981612a63565b92915050565b600060208284031215612aa557612aa4612a2d565b5b6000612ab384828501612a7a565b91505092915050565b60008115159050919050565b612ad181612abc565b82525050565b6000602082019050612aec6000830184612ac8565b92915050565b6000819050919050565b612b0581612af2565b8114612b1057600080fd5b50565b600081359050612b2281612afc565b92915050565b600060208284031215612b3e57612b3d612a2d565b5b6000612b4c84828501612b13565b91505092915050565b612b5e81612af2565b82525050565b6000602082019050612b796000830184612b55565b92915050565b6000819050919050565b612b9281612b7f565b8114612b9d57600080fd5b50565b600081359050612baf81612b89565b92915050565b600060208284031215612bcb57612bca612a2d565b5b6000612bd984828501612ba0565b91505092915050565b612beb81612b7f565b82525050565b6000602082019050612c066000830184612be2565b92915050565b600073ffffffffffffffffffffffffffffffffffffffff82169050919050565b6000612c3782612c0c565b9050919050565b612c4781612c2c565b8114612c5257600080fd5b50565b600081359050612c6481612c3e565b92915050565b60008060408385031215612c8157612c80612a2d565b5b6000612c8f85828601612ba0565b9250506020612ca085828601612c55565b9150509250929050565b600081519050919050565b600082825260208201905092915050565b6000819050602082019050919050565b612cdf81612af2565b82525050565b600081519050919050565b600082825260208201905092915050565b60005b83811015612d1f578082015181840152602081019050612d04565b83811115612d2e576000848401525b50505050565b6000601f19601f8301169050919050565b6000612d5082612ce5565b612d5a8185612cf0565b9350612d6a818560208601612d01565b612d7381612d34565b840191505092915050565b612d8781612abc565b82525050565b6000612d9882612c0c565b9050919050565b612da881612d8d565b82525050565b612db781612c2c565b82525050565b600061018083016000830151612dd66000860182612cd6565b506020830151612de96020860182612cd6565b506040830151612dfc6040860182612cd6565b506060830151612e0f6060860182612cd6565b506080830151612e226080860182612cd6565b5060a083015184820360a0860152612e3a8282612d45565b91505060c083015184820360c0860152612e548282612d45565b91505060e0830151612e6960e0860182612d7e565b50610100830151612e7e610100860182612d7e565b50610120830151612e93610120860182612d9f565b50610140830151612ea8610140860182612dae565b50610160830151612ebd610160860182612dae565b508091505092915050565b6000612ed48383612dbd565b905092915050565b6000602082019050919050565b6000612ef482612caa565b612efe8185612cb5565b935083602082028501612f1085612cc6565b8060005b85811015612f4c5784840389528151612f2d8582612ec8565b9450612f3883612edc565b925060208a01995050600181019050612f14565b50829750879550505050505092915050565b60006020820190508181036000830152612f788184612ee9565b905092915050565b600081519050919050565b600082825260208201905092915050565b6000819050602082019050919050565b606082016000820151612fc26000850182612dae565b506020820151612fd56020850182612cd6565b506040820151612fe86040850182612d7e565b50505050565b6000612ffa8383612fac565b60608301905092915050565b6000602082019050919050565b600061301e82612f80565b6130288185612f8b565b935061303383612f9c565b8060005b8381101561306457815161304b8882612fee565b975061305683613006565b925050600181019050613037565b5085935050505092915050565b6000602082019050818103600083015261308b8184613013565b905092915050565b600080fd5b600080fd5b600080fd5b60008083601f8401126130b8576130b7613093565b5b8235905067ffffffffffffffff8111156130d5576130d4613098565b5b6020830191508360018202830111156130f1576130f061309d565b5b9250929050565b61310181612d8d565b811461310c57600080fd5b50565b60008135905061311e816130f8565b92915050565b6000806000806000806080878903121561314157613140612a2d565b5b600087013567ffffffffffffffff81111561315f5761315e612a32565b5b61316b89828a016130a2565b9650965050602087013567ffffffffffffffff81111561318e5761318d612a32565b5b61319a89828a016130a2565b945094505060406131ad89828a0161310f565b92505060606131be89828a01612b13565b9150509295509295509295565b6000610180830160008301516131e46000860182612cd6565b5060208301516131f76020860182612cd6565b50604083015161320a6040860182612cd6565b50606083015161321d6060860182612cd6565b5060808301516132306080860182612cd6565b5060a083015184820360a08601526132488282612d45565b91505060c083015184820360c08601526132628282612d45565b91505060e083015161327760e0860182612d7e565b5061010083015161328c610100860182612d7e565b506101208301516132a1610120860182612d9f565b506101408301516132b6610140860182612dae565b506101608301516132cb610160860182612dae565b508091505092915050565b600060208201905081810360008301526132f081846131cb565b905092915050565b600081519050919050565b600082825260208201905092915050565b6000819050602082019050919050565b60006133308383612cd6565b60208301905092915050565b6000602082019050919050565b6000613354826132f8565b61335e8185613303565b935061336983613314565b8060005b8381101561339a5781516133818882613324565b975061338c8361333c565b92505060018101905061336d565b5085935050505092915050565b600060208201905081810360008301526133c18184613349565b905092915050565b6133d281612abc565b81146133dd57600080fd5b50565b6000813590506133ef816133c9565b92915050565b6000806040838503121561340c5761340b612a2d565b5b600061341a85828601612b13565b925050602061342b858286016133e0565b9150509250929050565b60608201600082015161344b6000850182612dae565b50602082015161345e6020850182612cd6565b5060408201516134716040850182612d7e565b50505050565b600060608201905061348c6000830184613435565b92915050565b600082825260208201905092915050565b60006134ae82612ce5565b6134b88185613492565b93506134c8818560208601612d01565b6134d181612d34565b840191505092915050565b600060208201905081810360008301526134f681846134a3565b905092915050565b7f496e73756666696369656e742066756e64000000000000000000000000000000600082015250565b6000613534601183613492565b915061353f826134fe565b602082019050919050565b6000602082019050818103600083015261356381613527565b9050919050565b7f5061796d656e742073656e74206265666f726500000000000000000000000000600082015250565b60006135a0601383613492565b91506135ab8261356a565b602082019050919050565b600060208201905081810360008301526135cf81613593565b9050919050565b7f496e73756666696369656e7420766f7465730000000000000000000000000000600082015250565b600061360c601283613492565b9150613617826135d6565b602082019050919050565b6000602082019050818103600083015261363b816135ff565b9050919050565b7f4e487b7100000000000000000000000000000000000000000000000000000000600052601160045260246000fd5b600061367c82612af2565b915061368783612af2565b92508282101561369a57613699613642565b5b828203905092915050565b7f5041594d454e54205452414e5346455245440000000000000000000000000000600082015250565b60006136db601283613492565b91506136e6826136a5565b602082019050919050565b60006060820190506137066000830185612be2565b8181036020830152613717816136ce565b90506137266040830184612b55565b9392505050565b7f416363657373436f6e74726f6c3a2063616e206f6e6c792072656e6f756e636560008201527f20726f6c657320666f722073656c660000000000000000000000000000000000602082015250565b6000613789602f83613492565b91506137948261372d565b604082019050919050565b600060208201905081810360008301526137b88161377c565b9050919050565b7f4e487b7100000000000000000000000000000000000000000000000000000000600052604160045260246000fd5b7f4e487b7100000000000000000000000000000000000000000000000000000000600052602260045260246000fd5b6000600282049050600182168061383557607f821691505b60208210811415613849576138486137ee565b5b50919050565b7f4e487b7100000000000000000000000000000000000000000000000000000000600052603260045260246000fd5b600061388982612af2565b91507fffffffffffffffffffffffffffffffffffffffffffffffffffffffffffffffff8214156138bc576138bb613642565b5b600182019050919050565b60006138d282612af2565b91506138dd83612af2565b9250827fffffffffffffffffffffffffffffffffffffffffffffffffffffffffffffffff0382111561391257613911613642565b5b828201905092915050565b7f50524f504f53414c205241495345440000000000000000000000000000000000600082015250565b6000613953600f83613492565b915061395e8261391d565b602082019050919050565b600060608201905061397e6000830185612be2565b818103602083015261398f81613946565b905061399e6040830184612b55565b9392505050565b7f50524f504f53414c20564f544500000000000000000000000000000000000000600082015250565b60006139db600d83613492565b91506139e6826139a5565b602082019050919050565b6000606082019050613a066000830185612be2565b8181036020830152613a17816139ce565b9050613a266040830184612b55565b9392505050565b7f436f6e747269627574696e67207a65726f206973206e6f7420616c6c6f77656460008201527f2e00000000000000000000000000000000000000000000000000000000000000602082015250565b6000613a89602183613492565b9150613a9482613a2d565b604082019050919050565b60006020820190508181036000830152613ab881613a7c565b9050919050565b7f434f4e545249425554494f4e2052454345495645440000000000000000000000600082015250565b6000613af5601583613492565b9150613b0082613abf565b602082019050919050565b6000606082019050613b206000830185612be2565b8181036020830152613b3181613ae8565b9050613b406040830184612b55565b9392505050565b7f5265656e7472616e637947756172643a207265656e7472616e742063616c6c00600082015250565b6000613b7d601f83613492565b9150613b8882613b47565b602082019050919050565b60006020820190508181036000830152613bac81613b70565b9050919050565b600081905092915050565b50565b6000613bce600083613bb3565b9150613bd982613bbe565b600082019050919050565b6000613bef82613bc1565b9150819050919050565b7f5061796d656e74206661696c6564000000000000000000000000000000000000600082015250565b6000613c2f600e83613492565b9150613c3a82613bf9565b602082019050919050565b60006020820190508181036000830152613c5e81613c22565b9050919050565b7f50726f706f73616c206475726174696f6e206578706972656400000000000000600082015250565b6000613c9b601983613492565b9150613ca682613c65565b602082019050919050565b60006020820190508181036000830152613cca81613c8e565b9050919050565b7f446f75626c6520766f74696e67206e6f7420616c6c6f77656400000000000000600082015250565b6000613d07601983613492565b9150613d1282613cd1565b602082019050919050565b60006020820190508181036000830152613d3681613cfa565b9050919050565b600081905092915050565b7f416363657373436f6e74726f6c3a206163636f756e7420000000000000000000600082015250565b6000613d7e601783613d3d565b9150613d8982613d48565b601782019050919050565b6000613d9f82612ce5565b613da98185613d3d565b9350613db9818560208601612d01565b80840191505092915050565b7f206973206d697373696e6720726f6c6520000000000000000000000000000000600082015250565b6000613dfb601183613d3d565b9150613e0682613dc5565b601182019050919050565b6000613e1c82613d71565b9150613e288285613d94565b9150613e3382613dee565b9150613e3f8284613d94565b91508190509392505050565b6000613e5682612af2565b9150613e6183612af2565b9250817fffffffffffffffffffffffffffffffffffffffffffffffffffffffffffffffff0483118215151615613e9a57613e99613642565b5b828202905092915050565b6000613eb082612af2565b91506000821415613ec457613ec3613642565b5b600182039050919050565b7f537472696e67733a20686578206c656e67746820696e73756666696369656e74600082015250565b6000613f05602083613492565b9150613f1082613ecf565b602082019050919050565b60006020820190508181036000830152613f3481613ef8565b905091905056fe44656e6965643a2055736572206973206e6f74206120636f6e7472696275746f7250726f706f73616c204372656174696f6e20416c6c6f77656420666f72205374616b65686f6c64657273206f6e6c79a2646970667358221220addd597f260910c1f8b91035f2c11d3ae8ca908fc54db0557921b62eab7b26cb64736f6c634300080b0033",
  "immutableReferences": {
    "1553": [
      {
        "length": 32,
        "start": 2535
      },
      {
        "length": 32,
        "start": 4545
      },
      {
        "length": 32,
        "start": 7865
      },
      {
        "length": 32,
        "start": 7998
      }
    ],
    "1558": [
      {
        "length": 32,
        "start": 1501
      },
      {
        "length": 32,
        "start": 2158
      },
      {
        "length": 32,
        "start": 3848
      },
      {
        "length": 32,
        "start": 4060
      },
      {
        "length": 32,
        "start": 5456
      },
      {
        "length": 32,
        "start": 5775
      },
      {
        "length": 32,
        "start": 6428
      },
      {
        "length": 32,
        "start": 7505
      },
      {
        "length": 32,
        "start": 7823
      },
      {
        "length": 32,
        "start": 8321
      }
    ],
    "1561": [
      {
        "length": 32,
        "start": 7627
      }
    ],
    "1564": [
      {
        "length": 32,
        "start": 4408
      }
    ]
  },
  "source": "// SPDX-License-Identifier: MIT\r\npragma solidity ^0.8.7;\r\n\r\nimport \"@openzeppelin/contracts/access/AccessControl.sol\";\r\nimport \"@openzeppelin/contracts/security/ReentrancyGuard.sol\";\r\n\r\ncontract DominionDAO is ReentrancyGuard, AccessControl {\r\n    bytes32 private immutable CONTRIBUTOR_ROLE = keccak256(\"CONTRIBUTOR\");\r\n    bytes32 private immutable STAKEHOLDER_ROLE = keccak256(\"STAKEHOLDER\");\r\n    uint256 immutable MIN_STAKEHOLDER_CONTRIBUTION = 1 ether;\r\n    // uint32 immutable MIN_VOTE_DURATION = 1 weeks;\r\n    uint32 immutable MIN_VOTE_DURATION = 5 minutes;\r\n    uint256 totalProposals;\r\n    uint256 public daoBalance;\r\n\r\n    mapping(uint256 => ProposalStruct) private raisedProposals;\r\n    mapping(address => uint256[]) private stakeholderVotes;\r\n    mapping(uint256 => VotedStruct[]) private votedOn;\r\n    mapping(address => uint256) private contributors;\r\n    mapping(address => uint256) private stakeholders;\r\n\r\n    struct ProposalStruct {\r\n        uint256 id;\r\n        uint256 amount;\r\n        uint256 duration;\r\n        uint256 upvotes;\r\n        uint256 downvotes;\r\n        string title;\r\n        string description;\r\n        bool passed;\r\n        bool paid;\r\n        address payable beneficiary;\r\n        address proposer;\r\n        address executor;\r\n    }\r\n\r\n    struct VotedStruct {\r\n        address voter;\r\n        uint256 timestamp;\r\n        bool choosen;\r\n    }\r\n\r\n    event Action(\r\n        address indexed initiator,\r\n        bytes32 role,\r\n        string message,\r\n        address indexed beneficiary,\r\n        uint256 amount\r\n    );\r\n\r\n    modifier stakeholderOnly(string memory message) {\r\n        require(hasRole(STAKEHOLDER_ROLE, msg.sender), message);\r\n        _;\r\n    }\r\n\r\n    modifier contributorOnly(string memory message) {\r\n        require(hasRole(CONTRIBUTOR_ROLE, msg.sender), message);\r\n        _;\r\n    }\r\n\r\n    function createProposal(\r\n        string calldata title,\r\n        string calldata description,\r\n        address payable beneficiary,\r\n        uint256 amount\r\n    )\r\n        external\r\n        payable\r\n        stakeholderOnly(\"Proposal Creation Allowed for Stakeholders only\")\r\n        returns (ProposalStruct memory)\r\n    {\r\n        uint256 proposalId = totalProposals++;\r\n        ProposalStruct storage proposal = raisedProposals[proposalId];\r\n\r\n        proposal.id = proposalId;\r\n        proposal.proposer = payable(msg.sender);\r\n        proposal.title = title;\r\n        proposal.description = description;\r\n        proposal.beneficiary = payable(beneficiary);\r\n        proposal.amount = amount;\r\n        proposal.duration = block.timestamp + MIN_VOTE_DURATION;\r\n\r\n        emit Action(\r\n            msg.sender,\r\n            CONTRIBUTOR_ROLE,\r\n            \"PROPOSAL RAISED\",\r\n            beneficiary,\r\n            amount\r\n        );\r\n\r\n        return proposal;\r\n    }\r\n\r\n    function performVote(\r\n        uint256 proposalId,\r\n        bool choosen\r\n    )\r\n        external\r\n        stakeholderOnly(\"Unauthorized: Stakeholders only\")\r\n        returns (VotedStruct memory)\r\n    {\r\n        ProposalStruct storage proposal = raisedProposals[proposalId];\r\n\r\n        handleVoting(proposal);\r\n\r\n        if (choosen) proposal.upvotes++;\r\n        else proposal.downvotes++;\r\n\r\n        stakeholderVotes[msg.sender].push(proposal.id);\r\n\r\n        votedOn[proposal.id].push(\r\n            VotedStruct(msg.sender, block.timestamp, choosen)\r\n        );\r\n\r\n        emit Action(\r\n            msg.sender,\r\n            STAKEHOLDER_ROLE,\r\n            \"PROPOSAL VOTE\",\r\n            proposal.beneficiary,\r\n            proposal.amount\r\n        );\r\n\r\n        return VotedStruct(msg.sender, block.timestamp, choosen);\r\n    }\r\n\r\n    function handleVoting(ProposalStruct storage proposal) private {\r\n        if (proposal.passed || proposal.duration <= block.timestamp) {\r\n            proposal.passed = true;\r\n            revert(\"Proposal duration expired\");\r\n        }\r\n\r\n        uint256[] memory tempVotes = stakeholderVotes[msg.sender];\r\n        for (uint256 votes = 0; votes < tempVotes.length; votes++) {\r\n            if (proposal.id == tempVotes[votes])\r\n                revert(\"Double voting not allowed\");\r\n        }\r\n    }\r\n\r\n    function payBeneficiary(\r\n        uint256 proposalId\r\n    )\r\n        external\r\n        stakeholderOnly(\"Unauthorized: Stakeholders only\")\r\n        nonReentrant\r\n        returns (uint256)\r\n    {\r\n        ProposalStruct storage proposal = raisedProposals[proposalId];\r\n        require(daoBalance >= proposal.amount, \"Insufficient fund\");\r\n\r\n        if (proposal.paid) revert(\"Payment sent before\");\r\n\r\n        if (proposal.upvotes <= proposal.downvotes)\r\n            revert(\"Insufficient votes\");\r\n\r\n        payTo(proposal.beneficiary, proposal.amount);\r\n\r\n        proposal.paid = true;\r\n        proposal.executor = msg.sender;\r\n        daoBalance -= proposal.amount;\r\n\r\n        emit Action(\r\n            msg.sender,\r\n            STAKEHOLDER_ROLE,\r\n            \"PAYMENT TRANSFERED\",\r\n            proposal.beneficiary,\r\n            proposal.amount\r\n        );\r\n\r\n        return daoBalance;\r\n    }\r\n\r\n    function contribute() external payable returns (uint256) {\r\n        require(msg.value > 0 ether, \"Contributing zero is not allowed.\");\r\n        if (!hasRole(STAKEHOLDER_ROLE, msg.sender)) {\r\n            uint256 totalContribution = contributors[msg.sender] + msg.value;\r\n\r\n            if (totalContribution >= MIN_STAKEHOLDER_CONTRIBUTION) {\r\n                stakeholders[msg.sender] = totalContribution;\r\n                contributors[msg.sender] += msg.value;\r\n                _setupRole(STAKEHOLDER_ROLE, msg.sender);\r\n                _setupRole(CONTRIBUTOR_ROLE, msg.sender);\r\n            } else {\r\n                contributors[msg.sender] += msg.value;\r\n                _setupRole(CONTRIBUTOR_ROLE, msg.sender);\r\n            }\r\n        } else {\r\n            contributors[msg.sender] += msg.value;\r\n            stakeholders[msg.sender] += msg.value;\r\n        }\r\n\r\n        daoBalance += msg.value;\r\n\r\n        emit Action(\r\n            msg.sender,\r\n            STAKEHOLDER_ROLE,\r\n            \"CONTRIBUTION RECEIVED\",\r\n            address(this),\r\n            msg.value\r\n        );\r\n\r\n        return daoBalance;\r\n    }\r\n\r\n    function getProposals()\r\n        external\r\n        view\r\n        returns (ProposalStruct[] memory props)\r\n    {\r\n        props = new ProposalStruct[](totalProposals);\r\n\r\n        for (uint256 i = 0; i < totalProposals; i++) {\r\n            props[i] = raisedProposals[i];\r\n        }\r\n    }\r\n\r\n    function getProposal(\r\n        uint256 proposalId\r\n    ) external view returns (ProposalStruct memory) {\r\n        return raisedProposals[proposalId];\r\n    }\r\n\r\n    function getVotesOf(\r\n        uint256 proposalId\r\n    ) external view returns (VotedStruct[] memory) {\r\n        return votedOn[proposalId];\r\n    }\r\n\r\n    function getStakeholderVotes()\r\n        external\r\n        view\r\n        stakeholderOnly(\"Unauthorized: not a stakeholder\")\r\n        returns (uint256[] memory)\r\n    {\r\n        return stakeholderVotes[msg.sender];\r\n    }\r\n\r\n    function getStakeholderBalance()\r\n        external\r\n        view\r\n        stakeholderOnly(\"Unauthorized: not a stakeholder\")\r\n        returns (uint256)\r\n    {\r\n        return stakeholders[msg.sender];\r\n    }\r\n\r\n    function isStakeholder() external view returns (bool) {\r\n        return stakeholders[msg.sender] > 0;\r\n    }\r\n\r\n    function getContributorBalance()\r\n        external\r\n        view\r\n        contributorOnly(\"Denied: User is not a contributor\")\r\n        returns (uint256)\r\n    {\r\n        return contributors[msg.sender];\r\n    }\r\n\r\n    function isContributor() external view returns (bool) {\r\n        return contributors[msg.sender] > 0;\r\n    }\r\n\r\n    function getBalance() external view returns (uint256) {\r\n        return contributors[msg.sender];\r\n    }\r\n\r\n    function payTo(address to, uint256 amount) internal returns (bool) {\r\n        (bool success, ) = payable(to).call{value: amount}(\"\");\r\n        require(success, \"Payment failed\");\r\n        return true;\r\n    }\r\n}\r\n",
  "sourcePath": "C:\\Users\\ACER\\Desktop\\GovChain\\src\\contracts\\DominonDao.sol",
  "compiler": {
    "name": "solc",
    "version": "0.8.11+commit.d7f03943.Emscripten.clang"
  },
  "schemaVersion": "3.4.16",
  "updatedAt": "2023-09-30T01:27:44.273Z",
  "networkType": "ethereum",
  "devdoc": {
    "kind": "dev",
    "methods": {
      "getRoleAdmin(bytes32)": {
        "details": "Returns the admin role that controls `role`. See {grantRole} and {revokeRole}. To change a role's admin, use {_setRoleAdmin}."
      },
      "grantRole(bytes32,address)": {
        "details": "Grants `role` to `account`. If `account` had not been already granted `role`, emits a {RoleGranted} event. Requirements: - the caller must have ``role``'s admin role. May emit a {RoleGranted} event."
      },
      "hasRole(bytes32,address)": {
        "details": "Returns `true` if `account` has been granted `role`."
      },
      "renounceRole(bytes32,address)": {
        "details": "Revokes `role` from the calling account. Roles are often managed via {grantRole} and {revokeRole}: this function's purpose is to provide a mechanism for accounts to lose their privileges if they are compromised (such as when a trusted device is misplaced). If the calling account had been revoked `role`, emits a {RoleRevoked} event. Requirements: - the caller must be `account`. May emit a {RoleRevoked} event."
      },
      "revokeRole(bytes32,address)": {
        "details": "Revokes `role` from `account`. If `account` had been granted `role`, emits a {RoleRevoked} event. Requirements: - the caller must have ``role``'s admin role. May emit a {RoleRevoked} event."
      },
      "supportsInterface(bytes4)": {
        "details": "See {IERC165-supportsInterface}."
      }
    },
    "version": 1
  },
  "userdoc": {
    "kind": "user",
    "methods": {},
    "version": 1
  }
}