{
  "contractName": "BudgetAllocation",
  "abi": [
    {
      "inputs": [],
      "stateMutability": "nonpayable",
      "type": "constructor"
    },
    {
      "anonymous": false,
      "inputs": [
        {
          "indexed": false,
          "internalType": "string",
          "name": "department",
          "type": "string"
        },
        {
          "indexed": false,
          "internalType": "uint256",
          "name": "newBudget",
          "type": "uint256"
        }
      ],
      "name": "BudgetAdjusted",
      "type": "event"
    },
    {
      "anonymous": false,
      "inputs": [
        {
          "indexed": false,
          "internalType": "string",
          "name": "department",
          "type": "string"
        },
        {
          "indexed": false,
          "internalType": "uint256",
          "name": "budget",
          "type": "uint256"
        }
      ],
      "name": "BudgetAllocated",
      "type": "event"
    },
    {
      "inputs": [],
      "name": "admin",
      "outputs": [
        {
          "internalType": "address",
          "name": "",
          "type": "address"
        }
      ],
      "stateMutability": "view",
      "type": "function"
    },
    {
      "inputs": [
        {
          "internalType": "string",
          "name": "",
          "type": "string"
        }
      ],
      "name": "departments",
      "outputs": [
        {
          "internalType": "uint256",
          "name": "budget",
          "type": "uint256"
        },
        {
          "internalType": "bool",
          "name": "exists",
          "type": "bool"
        }
      ],
      "stateMutability": "view",
      "type": "function"
    },
    {
      "inputs": [
        {
          "internalType": "string",
          "name": "departmentName",
          "type": "string"
        },
        {
          "internalType": "uint256",
          "name": "budget",
          "type": "uint256"
        }
      ],
      "name": "allocateBudget",
      "outputs": [],
      "stateMutability": "nonpayable",
      "type": "function"
    },
    {
      "inputs": [
        {
          "internalType": "string",
          "name": "departmentName",
          "type": "string"
        },
        {
          "internalType": "uint256",
          "name": "newBudget",
          "type": "uint256"
        }
      ],
      "name": "adjustBudget",
      "outputs": [],
      "stateMutability": "nonpayable",
      "type": "function"
    },
    {
      "inputs": [
        {
          "internalType": "string",
          "name": "departmentName",
          "type": "string"
        }
      ],
      "name": "getBudget",
      "outputs": [
        {
          "internalType": "uint256",
          "name": "",
          "type": "uint256"
        }
      ],
      "stateMutability": "view",
      "type": "function"
    }
  ],
  "bytecode": "0x608060405234801561001057600080fd5b50336000806101000a81548173ffffffffffffffffffffffffffffffffffffffff021916908373ffffffffffffffffffffffffffffffffffffffff160217905550610abd806100606000396000f3fe608060405234801561001057600080fd5b50600436106100575760003560e01c8063be92c7801461005c578063ec2854cb14610078578063f412f4fd14610094578063f851a440146100c4578063fa3e4936146100e2575b600080fd5b610076600480360381019061007191906106a3565b610113565b005b610092600480360381019061008d91906106a3565b610272565b005b6100ae60048036038101906100a991906106ff565b61040f565b6040516100bb9190610757565b60405180910390f35b6100cc6104a8565b6040516100d991906107b3565b60405180910390f35b6100fc60048036038101906100f791906106ff565b6104cc565b60405161010a9291906107e9565b60405180910390f35b60008054906101000a900473ffffffffffffffffffffffffffffffffffffffff1673ffffffffffffffffffffffffffffffffffffffff163373ffffffffffffffffffffffffffffffffffffffff16146101a1576040517f08c379a000000000000000000000000000000000000000000000000000000000815260040161019890610895565b60405180910390fd5b6001826040516101b1919061092f565b908152602001604051809103902060010160009054906101000a900460ff1661020f576040517f08c379a000000000000000000000000000000000000000000000000000000000815260040161020690610992565b60405180910390fd5b80600183604051610220919061092f565b9081526020016040518091039020600001819055507f5a100eaa104385c285ff5e1552f9e06774131a01ffccf684cce88a14efefb09b82826040516102669291906109eb565b60405180910390a15050565b60008054906101000a900473ffffffffffffffffffffffffffffffffffffffff1673ffffffffffffffffffffffffffffffffffffffff163373ffffffffffffffffffffffffffffffffffffffff1614610300576040517f08c379a00000000000000000000000000000000000000000000000000000000081526004016102f790610895565b60405180910390fd5b600182604051610310919061092f565b908152602001604051809103902060010160009054906101000a900460ff161561036f576040517f08c379a000000000000000000000000000000000000000000000000000000000815260040161036690610a67565b60405180910390fd5b604051806040016040528082815260200160011515815250600183604051610397919061092f565b90815260200160405180910390206000820151816000015560208201518160010160006101000a81548160ff0219169083151502179055509050507fcc54af79a7f71c49a794403da3af3969c70bb4c04cf5d7bdffda4b8b9007fc4b82826040516104039291906109eb565b60405180910390a15050565b6000600182604051610421919061092f565b908152602001604051809103902060010160009054906101000a900460ff1661047f576040517f08c379a000000000000000000000000000000000000000000000000000000000815260040161047690610992565b60405180910390fd5b60018260405161048f919061092f565b9081526020016040518091039020600001549050919050565b60008054906101000a900473ffffffffffffffffffffffffffffffffffffffff1681565b6001818051602081018201805184825260208301602085012081835280955050505050506000915090508060000154908060010160009054906101000a900460ff16905082565b6000604051905090565b600080fd5b600080fd5b600080fd5b600080fd5b6000601f19601f8301169050919050565b7f4e487b7100000000000000000000000000000000000000000000000000000000600052604160045260246000fd5b61057a82610531565b810181811067ffffffffffffffff8211171561059957610598610542565b5b80604052505050565b60006105ac610513565b90506105b88282610571565b919050565b600067ffffffffffffffff8211156105d8576105d7610542565b5b6105e182610531565b9050602081019050919050565b82818337600083830152505050565b600061061061060b846105bd565b6105a2565b90508281526020810184848401111561062c5761062b61052c565b5b6106378482856105ee565b509392505050565b600082601f83011261065457610653610527565b5b81356106648482602086016105fd565b91505092915050565b6000819050919050565b6106808161066d565b811461068b57600080fd5b50565b60008135905061069d81610677565b92915050565b600080604083850312156106ba576106b961051d565b5b600083013567ffffffffffffffff8111156106d8576106d7610522565b5b6106e48582860161063f565b92505060206106f58582860161068e565b9150509250929050565b6000602082840312156107155761071461051d565b5b600082013567ffffffffffffffff81111561073357610732610522565b5b61073f8482850161063f565b91505092915050565b6107518161066d565b82525050565b600060208201905061076c6000830184610748565b92915050565b600073ffffffffffffffffffffffffffffffffffffffff82169050919050565b600061079d82610772565b9050919050565b6107ad81610792565b82525050565b60006020820190506107c860008301846107a4565b92915050565b60008115159050919050565b6107e3816107ce565b82525050565b60006040820190506107fe6000830185610748565b61080b60208301846107da565b9392505050565b600082825260208201905092915050565b7f4f6e6c792061646d696e2063616e20706572666f726d2074686973206163746960008201527f6f6e000000000000000000000000000000000000000000000000000000000000602082015250565b600061087f602283610812565b915061088a82610823565b604082019050919050565b600060208201905081810360008301526108ae81610872565b9050919050565b600081519050919050565b600081905092915050565b60005b838110156108e95780820151818401526020810190506108ce565b838111156108f8576000848401525b50505050565b6000610909826108b5565b61091381856108c0565b93506109238185602086016108cb565b80840191505092915050565b600061093b82846108fe565b915081905092915050565b7f4465706172746d656e7420646f6573206e6f7420657869737400000000000000600082015250565b600061097c601983610812565b915061098782610946565b602082019050919050565b600060208201905081810360008301526109ab8161096f565b9050919050565b60006109bd826108b5565b6109c78185610812565b93506109d78185602086016108cb565b6109e081610531565b840191505092915050565b60006040820190508181036000830152610a0581856109b2565b9050610a146020830184610748565b9392505050565b7f4465706172746d656e7420616c72656164792065786973747300000000000000600082015250565b6000610a51601983610812565b9150610a5c82610a1b565b602082019050919050565b60006020820190508181036000830152610a8081610a44565b905091905056fea2646970667358221220e6231679f3f5a6d79a06479c43a0643f860ad3e31b2bf4c19c0078d0bbd05aa564736f6c634300080b0033",
  "immutableReferences": {},
  "source": "// SPDX-License-Identifier: MIT\r\npragma solidity ^0.8.0;\r\n\r\ncontract BudgetAllocation {\r\n    address public admin;\r\n\r\n    struct Department {\r\n        uint256 budget;\r\n        bool exists;\r\n    }\r\n\r\n    mapping(string => Department) public departments;\r\n\r\n    event BudgetAllocated(string department, uint256 budget);\r\n    event BudgetAdjusted(string department, uint256 newBudget);\r\n\r\n    modifier onlyAdmin() {\r\n        require(msg.sender == admin, \"Only admin can perform this action\");\r\n        _;\r\n    }\r\n\r\n    constructor() {\r\n        admin = msg.sender;\r\n    }\r\n\r\n    function allocateBudget(\r\n        string memory departmentName,\r\n        uint256 budget\r\n    ) external onlyAdmin {\r\n        require(\r\n            !departments[departmentName].exists,\r\n            \"Department already exists\"\r\n        );\r\n        departments[departmentName] = Department(budget, true);\r\n        emit BudgetAllocated(departmentName, budget);\r\n    }\r\n\r\n    function adjustBudget(\r\n        string memory departmentName,\r\n        uint256 newBudget\r\n    ) external onlyAdmin {\r\n        require(\r\n            departments[departmentName].exists,\r\n            \"Department does not exist\"\r\n        );\r\n        departments[departmentName].budget = newBudget;\r\n        emit BudgetAdjusted(departmentName, newBudget);\r\n    }\r\n\r\n    function getBudget(\r\n        string memory departmentName\r\n    ) external view returns (uint256) {\r\n        require(\r\n            departments[departmentName].exists,\r\n            \"Department does not exist\"\r\n        );\r\n        return departments[departmentName].budget;\r\n    }\r\n}\r\n",
  "sourcePath": "C:\\Users\\ACER\\Desktop\\GovChain\\src\\contracts\\BudgetAllocation.sol",
  "compiler": {
    "name": "solc",
    "version": "0.8.11+commit.d7f03943.Emscripten.clang"
  },
  "schemaVersion": "3.4.16",
  "updatedAt": "2023-09-30T08:07:32.311Z",
  "devdoc": {
    "kind": "dev",
    "methods": {},
    "version": 1
  },
  "userdoc": {
    "kind": "user",
    "methods": {},
    "version": 1
  }
}